Component: ARM Compiler 5.06 update 6 (build 750) Tool: armlink [4d35ed]

==============================================================================

Section Cross References

    startup_stm32f10x_md.o(RESET) refers to startup_stm32f10x_md.o(STACK) for __initial_sp
    startup_stm32f10x_md.o(RESET) refers to startup_stm32f10x_md.o(.text) for Reset_Handler
    startup_stm32f10x_md.o(RESET) refers to stm32f10x_it.o(.text) for NMI_Handler
    startup_stm32f10x_md.o(RESET) refers to porttimer.o(.text) for TIM2_IRQHandler
    startup_stm32f10x_md.o(.text) refers to system_stm32f10x.o(.text) for SystemInit
    startup_stm32f10x_md.o(.text) refers to entry.o(.ARM.Collect$$$$00000000) for __main
    main.o(.text) refers to stm32f10x_rcc.o(.text) for RCC_APB2PeriphClockCmd
    main.o(.text) refers to stm32f10x_gpio.o(.text) for GPIO_Init
    main.o(.text) refers to mb.o(.text) for eMBInit
    stm32f10x_it.o(.text) refers to portserial.o(.text) for UART3_IRQ
    modbuscb.o(.text) refers to mbutils.o(.text) for xMBUtilGetBits
    modbuscb.o(.text) refers to modbuscb.o(.data) for usRegInputStart
    stm32f10x_adc.o(.text) refers to stm32f10x_rcc.o(.text) for RCC_APB2PeriphResetCmd
    stm32f10x_bkp.o(.text) refers to stm32f10x_rcc.o(.text) for RCC_BackupResetCmd
    stm32f10x_can.o(.text) refers to stm32f10x_rcc.o(.text) for RCC_APB1PeriphResetCmd
    stm32f10x_cec.o(.text) refers to stm32f10x_rcc.o(.text) for RCC_APB1PeriphResetCmd
    stm32f10x_dac.o(.text) refers to stm32f10x_rcc.o(.text) for RCC_APB1PeriphResetCmd
    stm32f10x_gpio.o(.text) refers to stm32f10x_rcc.o(.text) for RCC_APB2PeriphResetCmd
==============================================================================

Removing Unused input sections from the image.

    Removing startup_stm32f10x_md.o(HEAP), (512 bytes).
    Removing stm32f10x_adc.o(.text), (1102 bytes).
    Removing stm32f10x_bkp.o(.text), (196 bytes).
    Removing stm32f10x_can.o(.text), (2544 bytes).
    Removing stm32f10x_cec.o(.text), (288 bytes).
    Removing stm32f10x_crc.o(.text), (72 bytes).
    Removing stm32f10x_dac.o(.text), (396 bytes).
    Removing stm32f10x_dbgmcu.o(.text), (48 bytes).
    Removing stm32f10x_dma.o(.text), (596 bytes).
    Removing stm32f10x_exti.o(.text), (284 bytes).
    Removing stm32f10x_flash.o(.text), (1468 bytes).
    Removing stm32f10x_fsmc.o(.text), (1548 bytes).
    Removing stm32f10x_i2c.o(.text), (1028 bytes).
    Removing stm32f10x_iwdg.o(.text), (64 bytes).
    Removing stm32f10x_pwr.o(.text), (204 bytes).
    Removing stm32f10x_rtc.o(.text), (328 bytes).
    Removing stm32f10x_sdio.o(.text), (468 bytes).
    Removing stm32f10x_spi.o(.text), (780 bytes).
==============================================================================

Image Symbol Table

    Local Symbols

    Symbol Name                              Value     Ov Type        Size  Object(Section)

    ../clib/microlib/init/entry.s            0x00000000   Number         0  entry9b.o ABSOLUTE
    ../clib/microlib/init/entry.s            0x00000000   Number         0  entry.o ABSOLUTE
    ../clib/microlib/init/entry.s            0x00000000   Number         0  entry11b.o ABSOLUTE
    ../clib/microlib/init/entry.s            0x00000000   Number         0  entry2.o ABSOLUTE
    ../clib/microlib/init/entry.s            0x00000000   Number         0  entry5.o ABSOLUTE
    ../clib/microlib/init/entry.s            0x00000000   Number         0  entry11a.o ABSOLUTE
    ../clib/microlib/init/entry.s            0x00000000   Number         0  entry10b.o ABSOLUTE
    ../clib/microlib/init/entry.s            0x00000000   Number         0  entry7b.o ABSOLUTE
    ../clib/microlib/init/entry.s            0x00000000   Number         0  entry10a.o ABSOLUTE
    ../clib/microlib/init/entry.s            0x00000000   Number         0  entry8a.o ABSOLUTE
    ../clib/microlib/init/entry.s            0x00000000   Number         0  entry8b.o ABSOLUTE
    ../clib/microlib/init/entry.s            0x00000000   Number         0  entry9a.o ABSOLUTE
    ../clib/microlib/init/entry.s            0x00000000   Number         0  entry7a.o ABSOLUTE
    ../clib/microlib/string/memcpy.c         0x00000000   Number         0  memcpyb.o ABSOLUTE
    ../clib/microlib/string/memcpy.c         0x00000000   Number         0  memcpya.o ABSOLUTE
    ..\CMSIS\core_cm3.c                      0x00000000   Number         0  core_cm3.o ABSOLUTE
    ..\CMSIS\startup\startup_stm32f10x_md.s  0x00000000   Number         0  startup_stm32f10x_md.o ABSOLUTE
    ..\CMSIS\system_stm32f10x.c              0x00000000   Number         0  system_stm32f10x.o ABSOLUTE
    ..\FWlib\src\misc.c                      0x00000000   Number         0  misc.o ABSOLUTE
    ..\FWlib\src\stm32f10x_adc.c             0x00000000   Number         0  stm32f10x_adc.o ABSOLUTE
    ..\FWlib\src\stm32f10x_bkp.c             0x00000000   Number         0  stm32f10x_bkp.o ABSOLUTE
    ..\FWlib\src\stm32f10x_can.c             0x00000000   Number         0  stm32f10x_can.o ABSOLUTE
    ..\FWlib\src\stm32f10x_cec.c             0x00000000   Number         0  stm32f10x_cec.o ABSOLUTE
    ..\FWlib\src\stm32f10x_crc.c             0x00000000   Number         0  stm32f10x_crc.o ABSOLUTE
    ..\FWlib\src\stm32f10x_dac.c             0x00000000   Number         0  stm32f10x_dac.o ABSOLUTE
    ..\FWlib\src\stm32f10x_dbgmcu.c          0x00000000   Number         0  stm32f10x_dbgmcu.o ABSOLUTE
    ..\FWlib\src\stm32f10x_dma.c             0x00000000   Number         0  stm32f10x_dma.o ABSOLUTE
    ..\FWlib\src\stm32f10x_exti.c            0x00000000   Number         0  stm32f10x_exti.o ABSOLUTE
    ..\FWlib\src\stm32f10x_flash.c           0x00000000   Number         0  stm32f10x_flash.o ABSOLUTE
    ..\FWlib\src\stm32f10x_fsmc.c            0x00000000   Number         0  stm32f10x_fsmc.o ABSOLUTE
    ..\FWlib\src\stm32f10x_gpio.c            0x00000000   Number         0  stm32f10x_gpio.o ABSOLUTE
    ..\FWlib\src\stm32f10x_i2c.c             0x00000000   Number         0  stm32f10x_i2c.o ABSOLUTE
    ..\FWlib\src\stm32f10x_iwdg.c            0x00000000   Number         0  stm32f10x_iwdg.o ABSOLUTE
    ..\FWlib\src\stm32f10x_pwr.c             0x00000000   Number         0  stm32f10x_pwr.o ABSOLUTE
    ..\FWlib\src\stm32f10x_rcc.c             0x00000000   Number         0  stm32f10x_rcc.o ABSOLUTE
    ..\FWlib\src\stm32f10x_rtc.c             0x00000000   Number         0  stm32f10x_rtc.o ABSOLUTE
    ..\FWlib\src\stm32f10x_sdio.c            0x00000000   Number         0  stm32f10x_sdio.o ABSOLUTE
    ..\FWlib\src\stm32f10x_spi.c             0x00000000   Number         0  stm32f10x_spi.o ABSOLUTE
    ..\FWlib\src\stm32f10x_tim.c             0x00000000   Number         0  stm32f10x_tim.o ABSOLUTE
    ..\FWlib\src\stm32f10x_usart.c           0x00000000   Number         0  stm32f10x_usart.o ABSOLUTE
    ..\FWlib\src\stm32f10x_wwdg.c            0x00000000   Number         0  stm32f10x_wwdg.o ABSOLUTE
    ..\\CMSIS\\core_cm3.c                    0x00000000   Number         0  core_cm3.o ABSOLUTE
    ..\modbus\ascii\mbascii.c                0x00000000   Number         0  mbascii.o ABSOLUTE
    ..\modbus\functions\mbfunccoils.c        0x00000000   Number         0  mbfunccoils.o ABSOLUTE
    ..\modbus\functions\mbfuncdiag.c         0x00000000   Number         0  mbfuncdiag.o ABSOLUTE
    ..\modbus\functions\mbfuncdisc.c         0x00000000   Number         0  mbfuncdisc.o ABSOLUTE
    ..\modbus\functions\mbfuncholding.c      0x00000000   Number         0  mbfuncholding.o ABSOLUTE
    ..\modbus\functions\mbfuncinput.c        0x00000000   Number         0  mbfuncinput.o ABSOLUTE
    ..\modbus\functions\mbfuncother.c        0x00000000   Number         0  mbfuncother.o ABSOLUTE
    ..\modbus\functions\mbutils.c            0x00000000   Number         0  mbutils.o ABSOLUTE
    ..\modbus\mb.c                           0x00000000   Number         0  mb.o ABSOLUTE
    ..\modbus\port\portevent.c               0x00000000   Number         0  portevent.o ABSOLUTE
    ..\modbus\port\portserial.c              0x00000000   Number         0  portserial.o ABSOLUTE
    ..\modbus\port\porttimer.c               0x00000000   Number         0  porttimer.o ABSOLUTE
    ..\modbus\rtu\mbcrc.c                    0x00000000   Number         0  mbcrc.o ABSOLUTE
    ..\modbus\rtu\mbrtu.c                    0x00000000   Number         0  mbrtu.o ABSOLUTE
    ..\modbus\tcp\mbtcp.c                    0x00000000   Number         0  mbtcp.o ABSOLUTE
    dc.s                                     0x00000000   Number         0  dc.o ABSOLUTE
    handlers.s                               0x00000000   Number         0  handlers.o ABSOLUTE
    init.s                                   0x00000000   Number         0  init.o ABSOLUTE
    main.c                                   0x00000000   Number         0  main.o ABSOLUTE
    modbusCB.c                               0x00000000   Number         0  modbuscb.o ABSOLUTE
    stm32f10x_it.c                           0x00000000   Number         0  stm32f10x_it.o ABSOLUTE
    RESET                                    0x08000000   Section      236  startup_stm32f10x_md.o(RESET)
    .ARM.Collect$$$$00000000                 0x080000ec   Section        0  entry.o(.ARM.Collect$$$$00000000)
    .ARM.Collect$$$$00000001                 0x080000ec   Section        4  entry2.o(.ARM.Collect$$$$00000001)
    .ARM.Collect$$$$00000004                 0x080000f0   Section        4  entry5.o(.ARM.Collect$$$$00000004)
    .ARM.Collect$$$$00000008                 0x080000f4   Section        0  entry7b.o(.ARM.Collect$$$$00000008)
    .ARM.Collect$$$$0000000A                 0x080000f4   Section        0  entry8b.o(.ARM.Collect$$$$0000000A)
    .ARM.Collect$$$$0000000B                 0x080000f4   Section        8  entry9a.o(.ARM.Collect$$$$0000000B)
    .ARM.Collect$$$$0000000D                 0x080000fc   Section        0  entry10a.o(.ARM.Collect$$$$0000000D)
    .ARM.Collect$$$$0000000F                 0x080000fc   Section        0  entry11a.o(.ARM.Collect$$$$0000000F)
    .ARM.Collect$$$$00002712                 0x080000fc   Section        4  entry2.o(.ARM.Collect$$$$00002712)
    __lit__00000000                          0x080000fc   Data           4  entry2.o(.ARM.Collect$$$$00002712)
    .text                                    0x08000100   Section       36  startup_stm32f10x_md.o(.text)
    .text                                    0x08000124   Section        0  main.o(.text)
    .text                                    0x080001b0   Section        0  stm32f10x_it.o(.text)
    .text                                    0x080001d8   Section        0  modbuscb.o(.text)
    .text                                    0x0800039c   Section        0  misc.o(.text)
    .text                                    0x08000478   Section        0  stm32f10x_gpio.o(.text)
    .text                                    0x080007d4   Section        0  stm32f10x_rcc.o(.text)
    .text                                    0x08000b78   Section        0  stm32f10x_tim.o(.text)
    TI4_Config                               0x0800101f   Thumb Code   130  stm32f10x_tim.o(.text)
    TI3_Config                               0x080010b3   Thumb Code   122  stm32f10x_tim.o(.text)
    TI2_Config                               0x08001147   Thumb Code   130  stm32f10x_tim.o(.text)
    TI1_Config                               0x080011db   Thumb Code   108  stm32f10x_tim.o(.text)
    .text                                    0x08001994   Section        0  stm32f10x_usart.o(.text)
    .text                                    0x08001d9c   Section        0  system_stm32f10x.o(.text)
    SetSysClockTo72                          0x08001d9d   Thumb Code   214  system_stm32f10x.o(.text)
    SetSysClock                              0x08001e73   Thumb Code     8  system_stm32f10x.o(.text)
    .text                                    0x08001f7c   Section        0  mbfunccoils.o(.text)
    .text                                    0x0800212a   Section        0  mbfuncdisc.o(.text)
    .text                                    0x080021d6   Section        0  mbfuncholding.o(.text)
    .text                                    0x080023e6   Section        0  mbfuncinput.o(.text)
    .text                                    0x08002474   Section        0  mbfuncother.o(.text)
    .text                                    0x08002508   Section        0  mbutils.o(.text)
    .text                                    0x080025b4   Section        0  mbcrc.o(.text)
    .text                                    0x080025ec   Section        0  mbrtu.o(.text)
    .text                                    0x08002890   Section        0  mb.o(.text)
    .text                                    0x08002b88   Section        0  portevent.o(.text)
    .text                                    0x08002bc4   Section        0  portserial.o(.text)
    .text                                    0x08002ddc   Section        0  porttimer.o(.text)
    .text                                    0x08002ee0   Section        0  memcpya.o(.text)
    .text                                    0x08002f04   Section       36  init.o(.text)
    i.__scatterload_copy                     0x08002f28   Section       14  handlers.o(i.__scatterload_copy)
    i.__scatterload_null                     0x08002f36   Section        2  handlers.o(i.__scatterload_null)
    i.__scatterload_zeroinit                 0x08002f38   Section       14  handlers.o(i.__scatterload_zeroinit)
    .constdata                               0x08002f46   Section      512  mbcrc.o(.constdata)
    aucCRCHi                                 0x08002f46   Data         256  mbcrc.o(.constdata)
    aucCRCLo                                 0x08003046   Data         256  mbcrc.o(.constdata)
    .data                                    0x20000000   Section       24  modbuscb.o(.data)
    usRegHoldingStart                        0x20000000   Data           2  modbuscb.o(.data)
    usRegHoldingBuf                          0x20000002   Data           8  modbuscb.o(.data)
    ucRegCoilsBuf                            0x2000000a   Data           1  modbuscb.o(.data)
    ucRegDiscBuf                             0x2000000b   Data           2  modbuscb.o(.data)
    usRegInputStart                          0x2000000e   Data           2  modbuscb.o(.data)
    usRegInputBuf                            0x20000010   Data           8  modbuscb.o(.data)
    .data                                    0x20000018   Section       20  stm32f10x_rcc.o(.data)
    APBAHBPrescTable                         0x20000018   Data          16  stm32f10x_rcc.o(.data)
    ADCPrescTable                            0x20000028   Data           4  stm32f10x_rcc.o(.data)
    .data                                    0x2000002c   Section       20  system_stm32f10x.o(.data)
    .data                                    0x20000040   Section        2  mbfuncother.o(.data)
    usMBSlaveIDLen                           0x20000040   Data           2  mbfuncother.o(.data)
    .data                                    0x20000044   Section       12  mbrtu.o(.data)
    eSndState                                0x20000044   Data           1  mbrtu.o(.data)
    eRcvState                                0x20000045   Data           1  mbrtu.o(.data)
    pucSndBufferCur                          0x20000048   Data           4  mbrtu.o(.data)
    usSndBufferCount                         0x2000004c   Data           2  mbrtu.o(.data)
    usRcvBufferPos                           0x2000004e   Data           2  mbrtu.o(.data)
    .data                                    0x20000050   Section      181  mb.o(.data)
    ucMBAddress                              0x20000050   Data           1  mb.o(.data)
    eMBCurrentMode                           0x20000051   Data           1  mb.o(.data)
    eMBState                                 0x20000052   Data           1  mb.o(.data)
    peMBFrameSendCur                         0x20000054   Data           4  mb.o(.data)
    pvMBFrameStartCur                        0x20000058   Data           4  mb.o(.data)
    pvMBFrameStopCur                         0x2000005c   Data           4  mb.o(.data)
    peMBFrameReceiveCur                      0x20000060   Data           4  mb.o(.data)
    pvMBFrameCloseCur                        0x20000064   Data           4  mb.o(.data)
    xFuncHandlers                            0x2000007c   Data         128  mb.o(.data)
    ucMBFrame                                0x200000fc   Data           4  mb.o(.data)
    ucRcvAddress                             0x20000100   Data           1  mb.o(.data)
    ucFunctionCode                           0x20000101   Data           1  mb.o(.data)
    usLength                                 0x20000102   Data           2  mb.o(.data)
    eException                               0x20000104   Data           1  mb.o(.data)
    .data                                    0x20000105   Section        2  portevent.o(.data)
    eQueuedEvent                             0x20000105   Data           1  portevent.o(.data)
    xEventInQueue                            0x20000106   Data           1  portevent.o(.data)
    .bss                                     0x20000108   Section       32  mbfuncother.o(.bss)
    ucMBSlaveID                              0x20000108   Data          32  mbfuncother.o(.bss)
    .bss                                     0x20000128   Section      256  mbrtu.o(.bss)
    STACK                                    0x20000228   Section     1024  startup_stm32f10x_md.o(STACK)

    Global Symbols

    Symbol Name                              Value     Ov Type        Size  Object(Section)

    BuildAttributes$$THM_ISAv4$P$D$K$B$S$PE$A:L22UL41UL21$X:L11$S22US41US21$IEEE1$IW$USESV6$~STKCKD$USESV7$~SHL$OSPACE$EBA8$MICROLIB$REQ8$PRES8$EABIv2 0x00000000   Number         0  anon$$obj.o ABSOLUTE
    __ARM_use_no_argv                        0x00000000   Number         0  main.o ABSOLUTE
    __cpp_initialize__aeabi_                  - Undefined Weak Reference
    __cxa_finalize                            - Undefined Weak Reference
    __decompress                              - Undefined Weak Reference
    _clock_init                               - Undefined Weak Reference
    _microlib_exit                            - Undefined Weak Reference
    __Vectors_Size                           0x000000ec   Number         0  startup_stm32f10x_md.o ABSOLUTE
    __Vectors                                0x08000000   Data           4  startup_stm32f10x_md.o(RESET)
    __Vectors_End                            0x080000ec   Data           0  startup_stm32f10x_md.o(RESET)
    __main                                   0x080000ed   Thumb Code     0  entry.o(.ARM.Collect$$$$00000000)
    _main_stk                                0x080000ed   Thumb Code     0  entry2.o(.ARM.Collect$$$$00000001)
    _main_scatterload                        0x080000f1   Thumb Code     0  entry5.o(.ARM.Collect$$$$00000004)
    __main_after_scatterload                 0x080000f5   Thumb Code     0  entry5.o(.ARM.Collect$$$$00000004)
    _main_clock                              0x080000f5   Thumb Code     0  entry7b.o(.ARM.Collect$$$$00000008)
    _main_cpp_init                           0x080000f5   Thumb Code     0  entry8b.o(.ARM.Collect$$$$0000000A)
    _main_init                               0x080000f5   Thumb Code     0  entry9a.o(.ARM.Collect$$$$0000000B)
    __rt_final_cpp                           0x080000fd   Thumb Code     0  entry10a.o(.ARM.Collect$$$$0000000D)
    __rt_final_exit                          0x080000fd   Thumb Code     0  entry11a.o(.ARM.Collect$$$$0000000F)
    Reset_Handler                            0x08000101   Thumb Code     8  startup_stm32f10x_md.o(.text)
    ADC1_2_IRQHandler                        0x0800011b   Thumb Code     0  startup_stm32f10x_md.o(.text)
    CAN1_RX1_IRQHandler                      0x0800011b   Thumb Code     0  startup_stm32f10x_md.o(.text)
    CAN1_SCE_IRQHandler                      0x0800011b   Thumb Code     0  startup_stm32f10x_md.o(.text)
    DMA1_Channel1_IRQHandler                 0x0800011b   Thumb Code     0  startup_stm32f10x_md.o(.text)
    DMA1_Channel2_IRQHandler                 0x0800011b   Thumb Code     0  startup_stm32f10x_md.o(.text)
    DMA1_Channel3_IRQHandler                 0x0800011b   Thumb Code     0  startup_stm32f10x_md.o(.text)
    DMA1_Channel4_IRQHandler                 0x0800011b   Thumb Code     0  startup_stm32f10x_md.o(.text)
    DMA1_Channel5_IRQHandler                 0x0800011b   Thumb Code     0  startup_stm32f10x_md.o(.text)
    DMA1_Channel6_IRQHandler                 0x0800011b   Thumb Code     0  startup_stm32f10x_md.o(.text)
    DMA1_Channel7_IRQHandler                 0x0800011b   Thumb Code     0  startup_stm32f10x_md.o(.text)
    EXTI0_IRQHandler                         0x0800011b   Thumb Code     0  startup_stm32f10x_md.o(.text)
    EXTI15_10_IRQHandler                     0x0800011b   Thumb Code     0  startup_stm32f10x_md.o(.text)
    EXTI1_IRQHandler                         0x0800011b   Thumb Code     0  startup_stm32f10x_md.o(.text)
    EXTI2_IRQHandler                         0x0800011b   Thumb Code     0  startup_stm32f10x_md.o(.text)
    EXTI3_IRQHandler                         0x0800011b   Thumb Code     0  startup_stm32f10x_md.o(.text)
    EXTI4_IRQHandler                         0x0800011b   Thumb Code     0  startup_stm32f10x_md.o(.text)
    EXTI9_5_IRQHandler                       0x0800011b   Thumb Code     0  startup_stm32f10x_md.o(.text)
    FLASH_IRQHandler                         0x0800011b   Thumb Code     0  startup_stm32f10x_md.o(.text)
    I2C1_ER_IRQHandler                       0x0800011b   Thumb Code     0  startup_stm32f10x_md.o(.text)
    I2C1_EV_IRQHandler                       0x0800011b   Thumb Code     0  startup_stm32f10x_md.o(.text)
    I2C2_ER_IRQHandler                       0x0800011b   Thumb Code     0  startup_stm32f10x_md.o(.text)
    I2C2_EV_IRQHandler                       0x0800011b   Thumb Code     0  startup_stm32f10x_md.o(.text)
    PVD_IRQHandler                           0x0800011b   Thumb Code     0  startup_stm32f10x_md.o(.text)
    RCC_IRQHandler                           0x0800011b   Thumb Code     0  startup_stm32f10x_md.o(.text)
    RTCAlarm_IRQHandler                      0x0800011b   Thumb Code     0  startup_stm32f10x_md.o(.text)
    RTC_IRQHandler                           0x0800011b   Thumb Code     0  startup_stm32f10x_md.o(.text)
    SPI1_IRQHandler                          0x0800011b   Thumb Code     0  startup_stm32f10x_md.o(.text)
    SPI2_IRQHandler                          0x0800011b   Thumb Code     0  startup_stm32f10x_md.o(.text)
    TAMPER_IRQHandler                        0x0800011b   Thumb Code     0  startup_stm32f10x_md.o(.text)
    TIM1_BRK_IRQHandler                      0x0800011b   Thumb Code     0  startup_stm32f10x_md.o(.text)
    TIM1_CC_IRQHandler                       0x0800011b   Thumb Code     0  startup_stm32f10x_md.o(.text)
    TIM1_TRG_COM_IRQHandler                  0x0800011b   Thumb Code     0  startup_stm32f10x_md.o(.text)
    TIM1_UP_IRQHandler                       0x0800011b   Thumb Code     0  startup_stm32f10x_md.o(.text)
    TIM3_IRQHandler                          0x0800011b   Thumb Code     0  startup_stm32f10x_md.o(.text)
    TIM4_IRQHandler                          0x0800011b   Thumb Code     0  startup_stm32f10x_md.o(.text)
    USBWakeUp_IRQHandler                     0x0800011b   Thumb Code     0  startup_stm32f10x_md.o(.text)
    USB_HP_CAN1_TX_IRQHandler                0x0800011b   Thumb Code     0  startup_stm32f10x_md.o(.text)
    WWDG_IRQHandler                          0x0800011b   Thumb Code     0  startup_stm32f10x_md.o(.text)
    GPIO_Config                              0x08000125   Thumb Code   100  main.o(.text)
    main                                     0x08000189   Thumb Code    34  main.o(.text)
    NMI_Handler                              0x080001b1   Thumb Code     2  stm32f10x_it.o(.text)
    HardFault_Handler                        0x080001b3   Thumb Code     4  stm32f10x_it.o(.text)
    MemManage_Handler                        0x080001b7   Thumb Code     4  stm32f10x_it.o(.text)
    BusFault_Handler                         0x080001bb   Thumb Code     4  stm32f10x_it.o(.text)
    UsageFault_Handler                       0x080001bf   Thumb Code     4  stm32f10x_it.o(.text)
    SVC_Handler                              0x080001c3   Thumb Code     2  stm32f10x_it.o(.text)
    DebugMon_Handler                         0x080001c5   Thumb Code     2  stm32f10x_it.o(.text)
    PendSV_Handler                           0x080001c7   Thumb Code     2  stm32f10x_it.o(.text)
    SysTick_Handler                          0x080001c9   Thumb Code     2  stm32f10x_it.o(.text)
    USB_LP_CAN1_RX0_IRQHandler               0x080001cb   Thumb Code     2  stm32f10x_it.o(.text)
    USART1_IRQHandler                        0x080001cd   Thumb Code     2  stm32f10x_it.o(.text)
    USART2_IRQHandler                        0x080001cf   Thumb Code     2  stm32f10x_it.o(.text)
    USART3_IRQHandler                        0x080001d1   Thumb Code     8  stm32f10x_it.o(.text)
    eMBRegInputCB                            0x080001d9   Thumb Code    66  modbuscb.o(.text)
    eMBRegHoldingCB                          0x0800021b   Thumb Code   120  modbuscb.o(.text)
    eMBRegCoilsCB                            0x08000293   Thumb Code   146  modbuscb.o(.text)
    eMBRegDiscreteCB                         0x08000325   Thumb Code    94  modbuscb.o(.text)
    NVIC_PriorityGroupConfig                 0x0800039d   Thumb Code    10  misc.o(.text)
    NVIC_Init                                0x080003a7   Thumb Code   100  misc.o(.text)
    NVIC_SetVectorTable                      0x0800040b   Thumb Code    14  misc.o(.text)
    NVIC_SystemLPConfig                      0x08000419   Thumb Code    34  misc.o(.text)
    SysTick_CLKSourceConfig                  0x0800043b   Thumb Code    40  misc.o(.text)
    GPIO_DeInit                              0x08000479   Thumb Code   172  stm32f10x_gpio.o(.text)
    GPIO_AFIODeInit                          0x08000525   Thumb Code    20  stm32f10x_gpio.o(.text)
    GPIO_Init                                0x08000539   Thumb Code   278  stm32f10x_gpio.o(.text)
    GPIO_StructInit                          0x0800064f   Thumb Code    16  stm32f10x_gpio.o(.text)
    GPIO_ReadInputDataBit                    0x0800065f   Thumb Code    18  stm32f10x_gpio.o(.text)
    GPIO_ReadInputData                       0x08000671   Thumb Code     8  stm32f10x_gpio.o(.text)
    GPIO_ReadOutputDataBit                   0x08000679   Thumb Code    18  stm32f10x_gpio.o(.text)
    GPIO_ReadOutputData                      0x0800068b   Thumb Code     8  stm32f10x_gpio.o(.text)
    GPIO_SetBits                             0x08000693   Thumb Code     4  stm32f10x_gpio.o(.text)
    GPIO_ResetBits                           0x08000697   Thumb Code     4  stm32f10x_gpio.o(.text)
    GPIO_WriteBit                            0x0800069b   Thumb Code    10  stm32f10x_gpio.o(.text)
    GPIO_Write                               0x080006a5   Thumb Code     4  stm32f10x_gpio.o(.text)
    GPIO_PinLockConfig                       0x080006a9   Thumb Code    18  stm32f10x_gpio.o(.text)
    GPIO_EventOutputConfig                   0x080006bb   Thumb Code    26  stm32f10x_gpio.o(.text)
    GPIO_EventOutputCmd                      0x080006d5   Thumb Code     6  stm32f10x_gpio.o(.text)
    GPIO_PinRemapConfig                      0x080006db   Thumb Code   138  stm32f10x_gpio.o(.text)
    GPIO_EXTILineConfig                      0x08000765   Thumb Code    66  stm32f10x_gpio.o(.text)
    GPIO_ETH_MediaInterfaceConfig            0x080007a7   Thumb Code     8  stm32f10x_gpio.o(.text)
    RCC_DeInit                               0x080007d5   Thumb Code    64  stm32f10x_rcc.o(.text)
    RCC_HSEConfig                            0x08000815   Thumb Code    70  stm32f10x_rcc.o(.text)
    RCC_GetFlagStatus                        0x0800085b   Thumb Code    56  stm32f10x_rcc.o(.text)
    RCC_WaitForHSEStartUp                    0x08000893   Thumb Code    56  stm32f10x_rcc.o(.text)
    RCC_AdjustHSICalibrationValue            0x080008cb   Thumb Code    20  stm32f10x_rcc.o(.text)
    RCC_HSICmd                               0x080008df   Thumb Code     6  stm32f10x_rcc.o(.text)
    RCC_PLLConfig                            0x080008e5   Thumb Code    24  stm32f10x_rcc.o(.text)
    RCC_PLLCmd                               0x080008fd   Thumb Code     6  stm32f10x_rcc.o(.text)
    RCC_SYSCLKConfig                         0x08000903   Thumb Code    18  stm32f10x_rcc.o(.text)
    RCC_GetSYSCLKSource                      0x08000915   Thumb Code    10  stm32f10x_rcc.o(.text)
    RCC_HCLKConfig                           0x0800091f   Thumb Code    18  stm32f10x_rcc.o(.text)
    RCC_PCLK1Config                          0x08000931   Thumb Code    18  stm32f10x_rcc.o(.text)
    RCC_PCLK2Config                          0x08000943   Thumb Code    20  stm32f10x_rcc.o(.text)
    RCC_ITConfig                             0x08000957   Thumb Code    26  stm32f10x_rcc.o(.text)
    RCC_USBCLKConfig                         0x08000971   Thumb Code     8  stm32f10x_rcc.o(.text)
    RCC_ADCCLKConfig                         0x08000979   Thumb Code    18  stm32f10x_rcc.o(.text)
    RCC_LSEConfig                            0x0800098b   Thumb Code    50  stm32f10x_rcc.o(.text)
    RCC_LSICmd                               0x080009bd   Thumb Code     6  stm32f10x_rcc.o(.text)
    RCC_RTCCLKConfig                         0x080009c3   Thumb Code    12  stm32f10x_rcc.o(.text)
    RCC_RTCCLKCmd                            0x080009cf   Thumb Code     8  stm32f10x_rcc.o(.text)
    RCC_GetClocksFreq                        0x080009d7   Thumb Code   192  stm32f10x_rcc.o(.text)
    RCC_AHBPeriphClockCmd                    0x08000a97   Thumb Code    26  stm32f10x_rcc.o(.text)
    RCC_APB2PeriphClockCmd                   0x08000ab1   Thumb Code    26  stm32f10x_rcc.o(.text)
    RCC_APB1PeriphClockCmd                   0x08000acb   Thumb Code    26  stm32f10x_rcc.o(.text)
    RCC_APB2PeriphResetCmd                   0x08000ae5   Thumb Code    26  stm32f10x_rcc.o(.text)
    RCC_APB1PeriphResetCmd                   0x08000aff   Thumb Code    26  stm32f10x_rcc.o(.text)
    RCC_BackupResetCmd                       0x08000b19   Thumb Code     8  stm32f10x_rcc.o(.text)
    RCC_ClockSecuritySystemCmd               0x08000b21   Thumb Code     6  stm32f10x_rcc.o(.text)
    RCC_MCOConfig                            0x08000b27   Thumb Code     6  stm32f10x_rcc.o(.text)
    RCC_ClearFlag                            0x08000b2d   Thumb Code    14  stm32f10x_rcc.o(.text)
    RCC_GetITStatus                          0x08000b3b   Thumb Code    20  stm32f10x_rcc.o(.text)
    RCC_ClearITPendingBit                    0x08000b4f   Thumb Code     6  stm32f10x_rcc.o(.text)
    TIM_DeInit                               0x08000b79   Thumb Code   424  stm32f10x_tim.o(.text)
    TIM_TimeBaseInit                         0x08000d21   Thumb Code   122  stm32f10x_tim.o(.text)
    TIM_OC1Init                              0x08000d9b   Thumb Code   132  stm32f10x_tim.o(.text)
    TIM_OC2Init                              0x08000e1f   Thumb Code   154  stm32f10x_tim.o(.text)
    TIM_OC3Init                              0x08000eb9   Thumb Code   150  stm32f10x_tim.o(.text)
    TIM_OC4Init                              0x08000f4f   Thumb Code   182  stm32f10x_tim.o(.text)
    TIM_SetIC4Prescaler                      0x08001005   Thumb Code    26  stm32f10x_tim.o(.text)
    TIM_SetIC3Prescaler                      0x080010a1   Thumb Code    18  stm32f10x_tim.o(.text)
    TIM_SetIC2Prescaler                      0x0800112d   Thumb Code    26  stm32f10x_tim.o(.text)
    TIM_SetIC1Prescaler                      0x080011c9   Thumb Code    18  stm32f10x_tim.o(.text)
    TIM_ICInit                               0x08001247   Thumb Code   150  stm32f10x_tim.o(.text)
    TIM_PWMIConfig                           0x080012dd   Thumb Code   124  stm32f10x_tim.o(.text)
    TIM_BDTRConfig                           0x08001359   Thumb Code    32  stm32f10x_tim.o(.text)
    TIM_TimeBaseStructInit                   0x08001379   Thumb Code    18  stm32f10x_tim.o(.text)
    TIM_OCStructInit                         0x0800138b   Thumb Code    20  stm32f10x_tim.o(.text)
    TIM_ICStructInit                         0x0800139f   Thumb Code    18  stm32f10x_tim.o(.text)
    TIM_BDTRStructInit                       0x080013b1   Thumb Code    40  stm32f10x_tim.o(.text)
    TIM_Cmd                                  0x080013d9   Thumb Code    24  stm32f10x_tim.o(.text)
    TIM_CtrlPWMOutputs                       0x080013f1   Thumb Code    30  stm32f10x_tim.o(.text)
    TIM_ITConfig                             0x0800140f   Thumb Code    18  stm32f10x_tim.o(.text)
    TIM_GenerateEvent                        0x08001421   Thumb Code     4  stm32f10x_tim.o(.text)
    TIM_DMAConfig                            0x08001425   Thumb Code    10  stm32f10x_tim.o(.text)
    TIM_DMACmd                               0x0800142f   Thumb Code    18  stm32f10x_tim.o(.text)
    TIM_InternalClockConfig                  0x08001441   Thumb Code    12  stm32f10x_tim.o(.text)
    TIM_SelectInputTrigger                   0x0800144d   Thumb Code    18  stm32f10x_tim.o(.text)
    TIM_ITRxExternalClockConfig              0x0800145f   Thumb Code    24  stm32f10x_tim.o(.text)
    TIM_TIxExternalClockConfig               0x08001477   Thumb Code    62  stm32f10x_tim.o(.text)
    TIM_ETRConfig                            0x080014b5   Thumb Code    28  stm32f10x_tim.o(.text)
    TIM_ETRClockMode1Config                  0x080014d1   Thumb Code    54  stm32f10x_tim.o(.text)
    TIM_ETRClockMode2Config                  0x08001507   Thumb Code    32  stm32f10x_tim.o(.text)
    TIM_PrescalerConfig                      0x08001527   Thumb Code     6  stm32f10x_tim.o(.text)
    TIM_CounterModeConfig                    0x0800152d   Thumb Code    18  stm32f10x_tim.o(.text)
    TIM_EncoderInterfaceConfig               0x0800153f   Thumb Code    66  stm32f10x_tim.o(.text)
    TIM_ForcedOC1Config                      0x08001581   Thumb Code    18  stm32f10x_tim.o(.text)
    TIM_ForcedOC2Config                      0x08001593   Thumb Code    26  stm32f10x_tim.o(.text)
    TIM_ForcedOC3Config                      0x080015ad   Thumb Code    18  stm32f10x_tim.o(.text)
    TIM_ForcedOC4Config                      0x080015bf   Thumb Code    26  stm32f10x_tim.o(.text)
    TIM_ARRPreloadConfig                     0x080015d9   Thumb Code    24  stm32f10x_tim.o(.text)
    TIM_SelectCOM                            0x080015f1   Thumb Code    24  stm32f10x_tim.o(.text)
    TIM_SelectCCDMA                          0x08001609   Thumb Code    24  stm32f10x_tim.o(.text)
    TIM_CCPreloadControl                     0x08001621   Thumb Code    24  stm32f10x_tim.o(.text)
    TIM_OC1PreloadConfig                     0x08001639   Thumb Code    18  stm32f10x_tim.o(.text)
    TIM_OC2PreloadConfig                     0x0800164b   Thumb Code    26  stm32f10x_tim.o(.text)
    TIM_OC3PreloadConfig                     0x08001665   Thumb Code    18  stm32f10x_tim.o(.text)
    TIM_OC4PreloadConfig                     0x08001677   Thumb Code    26  stm32f10x_tim.o(.text)
    TIM_OC1FastConfig                        0x08001691   Thumb Code    18  stm32f10x_tim.o(.text)
    TIM_OC2FastConfig                        0x080016a3   Thumb Code    26  stm32f10x_tim.o(.text)
    TIM_OC3FastConfig                        0x080016bd   Thumb Code    18  stm32f10x_tim.o(.text)
    TIM_OC4FastConfig                        0x080016cf   Thumb Code    26  stm32f10x_tim.o(.text)
    TIM_ClearOC1Ref                          0x080016e9   Thumb Code    18  stm32f10x_tim.o(.text)
    TIM_ClearOC2Ref                          0x080016fb   Thumb Code    24  stm32f10x_tim.o(.text)
    TIM_ClearOC3Ref                          0x08001713   Thumb Code    18  stm32f10x_tim.o(.text)
    TIM_ClearOC4Ref                          0x08001725   Thumb Code    24  stm32f10x_tim.o(.text)
    TIM_OC1PolarityConfig                    0x0800173d   Thumb Code    18  stm32f10x_tim.o(.text)
    TIM_OC1NPolarityConfig                   0x0800174f   Thumb Code    18  stm32f10x_tim.o(.text)
    TIM_OC2PolarityConfig                    0x08001761   Thumb Code    26  stm32f10x_tim.o(.text)
    TIM_OC2NPolarityConfig                   0x0800177b   Thumb Code    26  stm32f10x_tim.o(.text)
    TIM_OC3PolarityConfig                    0x08001795   Thumb Code    26  stm32f10x_tim.o(.text)
    TIM_OC3NPolarityConfig                   0x080017af   Thumb Code    26  stm32f10x_tim.o(.text)
    TIM_OC4PolarityConfig                    0x080017c9   Thumb Code    26  stm32f10x_tim.o(.text)
    TIM_CCxCmd                               0x080017e3   Thumb Code    30  stm32f10x_tim.o(.text)
    TIM_CCxNCmd                              0x08001801   Thumb Code    30  stm32f10x_tim.o(.text)
    TIM_SelectOCxM                           0x0800181f   Thumb Code    82  stm32f10x_tim.o(.text)
    TIM_UpdateDisableConfig                  0x08001871   Thumb Code    24  stm32f10x_tim.o(.text)
    TIM_UpdateRequestConfig                  0x08001889   Thumb Code    24  stm32f10x_tim.o(.text)
    TIM_SelectHallSensor                     0x080018a1   Thumb Code    24  stm32f10x_tim.o(.text)
    TIM_SelectOnePulseMode                   0x080018b9   Thumb Code    18  stm32f10x_tim.o(.text)
    TIM_SelectOutputTrigger                  0x080018cb   Thumb Code    18  stm32f10x_tim.o(.text)
    TIM_SelectSlaveMode                      0x080018dd   Thumb Code    18  stm32f10x_tim.o(.text)
    TIM_SelectMasterSlaveMode                0x080018ef   Thumb Code    18  stm32f10x_tim.o(.text)
    TIM_SetCounter                           0x08001901   Thumb Code     4  stm32f10x_tim.o(.text)
    TIM_SetAutoreload                        0x08001905   Thumb Code     4  stm32f10x_tim.o(.text)
    TIM_SetCompare1                          0x08001909   Thumb Code     4  stm32f10x_tim.o(.text)
    TIM_SetCompare2                          0x0800190d   Thumb Code     4  stm32f10x_tim.o(.text)
    TIM_SetCompare3                          0x08001911   Thumb Code     4  stm32f10x_tim.o(.text)
    TIM_SetCompare4                          0x08001915   Thumb Code     6  stm32f10x_tim.o(.text)
    TIM_SetClockDivision                     0x0800191b   Thumb Code    18  stm32f10x_tim.o(.text)
    TIM_GetCapture1                          0x0800192d   Thumb Code     6  stm32f10x_tim.o(.text)
    TIM_GetCapture2                          0x08001933   Thumb Code     6  stm32f10x_tim.o(.text)
    TIM_GetCapture3                          0x08001939   Thumb Code     6  stm32f10x_tim.o(.text)
    TIM_GetCapture4                          0x0800193f   Thumb Code     8  stm32f10x_tim.o(.text)
    TIM_GetCounter                           0x08001947   Thumb Code     6  stm32f10x_tim.o(.text)
    TIM_GetPrescaler                         0x0800194d   Thumb Code     6  stm32f10x_tim.o(.text)
    TIM_GetFlagStatus                        0x08001953   Thumb Code    18  stm32f10x_tim.o(.text)
    TIM_ClearFlag                            0x08001965   Thumb Code     6  stm32f10x_tim.o(.text)
    TIM_GetITStatus                          0x0800196b   Thumb Code    34  stm32f10x_tim.o(.text)
    TIM_ClearITPendingBit                    0x0800198d   Thumb Code     6  stm32f10x_tim.o(.text)
    USART_DeInit                             0x08001995   Thumb Code   134  stm32f10x_usart.o(.text)
    USART_Init                               0x08001a1b   Thumb Code   210  stm32f10x_usart.o(.text)
    USART_StructInit                         0x08001aed   Thumb Code    24  stm32f10x_usart.o(.text)
    USART_ClockInit                          0x08001b05   Thumb Code    34  stm32f10x_usart.o(.text)
    USART_ClockStructInit                    0x08001b27   Thumb Code    12  stm32f10x_usart.o(.text)
    USART_Cmd                                0x08001b33   Thumb Code    24  stm32f10x_usart.o(.text)
    USART_ITConfig                           0x08001b4b   Thumb Code    74  stm32f10x_usart.o(.text)
    USART_DMACmd                             0x08001b95   Thumb Code    18  stm32f10x_usart.o(.text)
    USART_SetAddress                         0x08001ba7   Thumb Code    18  stm32f10x_usart.o(.text)
    USART_WakeUpConfig                       0x08001bb9   Thumb Code    18  stm32f10x_usart.o(.text)
    USART_ReceiverWakeUpCmd                  0x08001bcb   Thumb Code    24  stm32f10x_usart.o(.text)
    USART_LINBreakDetectLengthConfig         0x08001be3   Thumb Code    18  stm32f10x_usart.o(.text)
    USART_LINCmd                             0x08001bf5   Thumb Code    24  stm32f10x_usart.o(.text)
    USART_SendData                           0x08001c0d   Thumb Code     8  stm32f10x_usart.o(.text)
    USART_ReceiveData                        0x08001c15   Thumb Code    10  stm32f10x_usart.o(.text)
    USART_SendBreak                          0x08001c1f   Thumb Code    10  stm32f10x_usart.o(.text)
    USART_SetGuardTime                       0x08001c29   Thumb Code    16  stm32f10x_usart.o(.text)
    USART_SetPrescaler                       0x08001c39   Thumb Code    16  stm32f10x_usart.o(.text)
    USART_SmartCardCmd                       0x08001c49   Thumb Code    24  stm32f10x_usart.o(.text)
    USART_SmartCardNACKCmd                   0x08001c61   Thumb Code    24  stm32f10x_usart.o(.text)
    USART_HalfDuplexCmd                      0x08001c79   Thumb Code    24  stm32f10x_usart.o(.text)
    USART_OverSampling8Cmd                   0x08001c91   Thumb Code    22  stm32f10x_usart.o(.text)
    USART_OneBitMethodCmd                    0x08001ca7   Thumb Code    24  stm32f10x_usart.o(.text)
    USART_IrDAConfig                         0x08001cbf   Thumb Code    18  stm32f10x_usart.o(.text)
    USART_IrDACmd                            0x08001cd1   Thumb Code    24  stm32f10x_usart.o(.text)
    USART_GetFlagStatus                      0x08001ce9   Thumb Code    26  stm32f10x_usart.o(.text)
    USART_ClearFlag                          0x08001d03   Thumb Code    18  stm32f10x_usart.o(.text)
    USART_GetITStatus                        0x08001d15   Thumb Code    84  stm32f10x_usart.o(.text)
    USART_ClearITPendingBit                  0x08001d69   Thumb Code    52  stm32f10x_usart.o(.text)
    SystemInit                               0x08001e7b   Thumb Code    78  system_stm32f10x.o(.text)
    SystemCoreClockUpdate                    0x08001ec9   Thumb Code   142  system_stm32f10x.o(.text)
    eMBFuncReadCoils                         0x08001f7d   Thumb Code   174  mbfunccoils.o(.text)
    eMBFuncWriteCoil                         0x0800202b   Thumb Code   112  mbfunccoils.o(.text)
    eMBFuncWriteMultipleCoils                0x0800209b   Thumb Code   144  mbfunccoils.o(.text)
    eMBFuncReadDiscreteInputs                0x0800212b   Thumb Code   172  mbfuncdisc.o(.text)
    eMBFuncWriteHoldingRegister              0x080021d7   Thumb Code    66  mbfuncholding.o(.text)
    eMBFuncWriteMultipleHoldingRegister      0x08002219   Thumb Code   110  mbfuncholding.o(.text)
    eMBFuncReadHoldingRegister               0x08002287   Thumb Code   140  mbfuncholding.o(.text)
    eMBFuncReadWriteMultipleHoldingRegister  0x08002313   Thumb Code   212  mbfuncholding.o(.text)
    eMBFuncReadInputRegister                 0x080023e7   Thumb Code   140  mbfuncinput.o(.text)
    eMBSetSlaveID                            0x08002475   Thumb Code   110  mbfuncother.o(.text)
    eMBFuncReportSlaveID                     0x080024e3   Thumb Code    30  mbfuncother.o(.text)
    xMBUtilSetBits                           0x08002509   Thumb Code    96  mbutils.o(.text)
    xMBUtilGetBits                           0x08002569   Thumb Code    42  mbutils.o(.text)
    prveMBError2Exception                    0x08002593   Thumb Code    34  mbutils.o(.text)
    usMBCRC16                                0x080025b5   Thumb Code    48  mbcrc.o(.text)
    eMBRTUInit                               0x080025ed   Thumb Code    84  mbrtu.o(.text)
    eMBRTUStart                              0x08002641   Thumb Code    30  mbrtu.o(.text)
    eMBRTUStop                               0x0800265f   Thumb Code    24  mbrtu.o(.text)
    eMBRTUReceive                            0x08002677   Thumb Code    78  mbrtu.o(.text)
    eMBRTUSend                               0x080026c5   Thumb Code   154  mbrtu.o(.text)
    xMBRTUReceiveFSM                         0x0800275f   Thumb Code   122  mbrtu.o(.text)
    xMBRTUTransmitFSM                        0x080027d9   Thumb Code    94  mbrtu.o(.text)
    xMBRTUTimerT35Expired                    0x08002837   Thumb Code    60  mbrtu.o(.text)
    eMBInit                                  0x08002891   Thumb Code   150  mb.o(.text)
    eMBRegisterCB                            0x08002927   Thumb Code   138  mb.o(.text)
    eMBClose                                 0x080029b1   Thumb Code    32  mb.o(.text)
    eMBEnable                                0x080029d1   Thumb Code    32  mb.o(.text)
    eMBDisable                               0x080029f1   Thumb Code    42  mb.o(.text)
    eMBPoll                                  0x08002a1b   Thumb Code   268  mb.o(.text)
    xMBPortEventInit                         0x08002b89   Thumb Code    10  portevent.o(.text)
    xMBPortEventPost                         0x08002b93   Thumb Code    16  portevent.o(.text)
    xMBPortEventGet                          0x08002ba3   Thumb Code    26  portevent.o(.text)
    vMBPortSerialEnable                      0x08002bc5   Thumb Code    84  portserial.o(.text)
    vMBPortClose                             0x08002c19   Thumb Code    24  portserial.o(.text)
    ExitCriticalSection                      0x08002c31   Thumb Code     4  portserial.o(.text)
    EnterCriticalSection                     0x08002c35   Thumb Code     4  portserial.o(.text)
    xMBPortSerialInit                        0x08002c39   Thumb Code   290  portserial.o(.text)
    xMBPortSerialPutByte                     0x08002d5b   Thumb Code    30  portserial.o(.text)
    xMBPortSerialGetByte                     0x08002d79   Thumb Code    16  portserial.o(.text)
    UART3_IRQ                                0x08002d89   Thumb Code    62  portserial.o(.text)
    xMBPortTimersInit                        0x08002ddd   Thumb Code   126  porttimer.o(.text)
    vMBPortTimersEnable                      0x08002e5b   Thumb Code    40  porttimer.o(.text)
    vMBPortTimersDisable                     0x08002e83   Thumb Code    42  porttimer.o(.text)
    prvvTIMERExpiredISR                      0x08002ead   Thumb Code    10  porttimer.o(.text)
    TIM2_IRQHandler                          0x08002eb7   Thumb Code    34  porttimer.o(.text)
    __aeabi_memcpy                           0x08002ee1   Thumb Code    36  memcpya.o(.text)
    __aeabi_memcpy4                          0x08002ee1   Thumb Code     0  memcpya.o(.text)
    __aeabi_memcpy8                          0x08002ee1   Thumb Code     0  memcpya.o(.text)
    __scatterload                            0x08002f05   Thumb Code    28  init.o(.text)
    __scatterload_rt2                        0x08002f05   Thumb Code     0  init.o(.text)
    __scatterload_copy                       0x08002f29   Thumb Code    14  handlers.o(i.__scatterload_copy)
    __scatterload_null                       0x08002f37   Thumb Code     2  handlers.o(i.__scatterload_null)
    __scatterload_zeroinit                   0x08002f39   Thumb Code    14  handlers.o(i.__scatterload_zeroinit)
    Region$$Table$$Base                      0x08003148   Number         0  anon$$obj.o(Region$$Table)
    Region$$Table$$Limit                     0x08003168   Number         0  anon$$obj.o(Region$$Table)
    SystemCoreClock                          0x2000002c   Data           4  system_stm32f10x.o(.data)
    AHBPrescTable                            0x20000030   Data          16  system_stm32f10x.o(.data)
    pxMBFrameCBByteReceived                  0x20000068   Data           4  mb.o(.data)
    pxMBFrameCBTransmitterEmpty              0x2000006c   Data           4  mb.o(.data)
    pxMBPortCBTimerExpired                   0x20000070   Data           4  mb.o(.data)
    pxMBFrameCBReceiveFSMCur                 0x20000074   Data           4  mb.o(.data)
    pxMBFrameCBTransmitFSMCur                0x20000078   Data           4  mb.o(.data)
    ucRTUBuf                                 0x20000128   Data         256  mbrtu.o(.bss)
    __initial_sp                             0x20000628   Data           0  startup_stm32f10x_md.o(STACK)



==============================================================================

Memory Map of the image

  Image Entry point : 0x080000ed

  Load Region LR_IROM1 (Base: 0x08000000, Size: 0x00003270, Max: 0x00010000, ABSOLUTE)

    Execution Region ER_IROM1 (Exec base: 0x08000000, Load base: 0x08000000, Size: 0x00003168, Max: 0x00010000, ABSOLUTE)

    Exec Addr    Load Addr    Size         Type   Attr      Idx    E Section Name        Object

    0x08000000   0x08000000   0x000000ec   Data   RO            3    RESET               startup_stm32f10x_md.o
    0x080000ec   0x080000ec   0x00000000   Code   RO          667  * .ARM.Collect$$$$00000000  mc_w.l(entry.o)
    0x080000ec   0x080000ec   0x00000004   Code   RO          674    .ARM.Collect$$$$00000001  mc_w.l(entry2.o)
    0x080000f0   0x080000f0   0x00000004   Code   RO          677    .ARM.Collect$$$$00000004  mc_w.l(entry5.o)
    0x080000f4   0x080000f4   0x00000000   Code   RO          679    .ARM.Collect$$$$00000008  mc_w.l(entry7b.o)
    0x080000f4   0x080000f4   0x00000000   Code   RO          681    .ARM.Collect$$$$0000000A  mc_w.l(entry8b.o)
    0x080000f4   0x080000f4   0x00000008   Code   RO          682    .ARM.Collect$$$$0000000B  mc_w.l(entry9a.o)
    0x080000fc   0x080000fc   0x00000000   Code   RO          684    .ARM.Collect$$$$0000000D  mc_w.l(entry10a.o)
    0x080000fc   0x080000fc   0x00000000   Code   RO          686    .ARM.Collect$$$$0000000F  mc_w.l(entry11a.o)
    0x080000fc   0x080000fc   0x00000004   Code   RO          675    .ARM.Collect$$$$00002712  mc_w.l(entry2.o)
    0x08000100   0x08000100   0x00000024   Code   RO            4    .text               startup_stm32f10x_md.o
    0x08000124   0x08000124   0x0000008c   Code   RO           10    .text               main.o
    0x080001b0   0x080001b0   0x00000028   Code   RO           87    .text               stm32f10x_it.o
    0x080001d8   0x080001d8   0x000001c4   Code   RO          102    .text               modbuscb.o
    0x0800039c   0x0800039c   0x000000dc   Code   RO          116    .text               misc.o
    0x08000478   0x08000478   0x0000035c   Code   RO          284    .text               stm32f10x_gpio.o
    0x080007d4   0x080007d4   0x000003a4   Code   RO          341    .text               stm32f10x_rcc.o
    0x08000b78   0x08000b78   0x00000e1a   Code   RO          397    .text               stm32f10x_tim.o
    0x08001992   0x08001992   0x00000002   PAD
    0x08001994   0x08001994   0x00000408   Code   RO          409    .text               stm32f10x_usart.o
    0x08001d9c   0x08001d9c   0x000001e0   Code   RO          446    .text               system_stm32f10x.o
    0x08001f7c   0x08001f7c   0x000001ae   Code   RO          494    .text               mbfunccoils.o
    0x0800212a   0x0800212a   0x000000ac   Code   RO          509    .text               mbfuncdisc.o
    0x080021d6   0x080021d6   0x00000210   Code   RO          521    .text               mbfuncholding.o
    0x080023e6   0x080023e6   0x0000008c   Code   RO          533    .text               mbfuncinput.o
    0x08002472   0x08002472   0x00000002   PAD
    0x08002474   0x08002474   0x00000094   Code   RO          545    .text               mbfuncother.o
    0x08002508   0x08002508   0x000000ac   Code   RO          560    .text               mbutils.o
    0x080025b4   0x080025b4   0x00000038   Code   RO          572    .text               mbcrc.o
    0x080025ec   0x080025ec   0x000002a4   Code   RO          586    .text               mbrtu.o
    0x08002890   0x08002890   0x000002f8   Code   RO          608    .text               mb.o
    0x08002b88   0x08002b88   0x0000003c   Code   RO          629    .text               portevent.o
    0x08002bc4   0x08002bc4   0x00000218   Code   RO          643    .text               portserial.o
    0x08002ddc   0x08002ddc   0x00000104   Code   RO          655    .text               porttimer.o
    0x08002ee0   0x08002ee0   0x00000024   Code   RO          670    .text               mc_w.l(memcpya.o)
    0x08002f04   0x08002f04   0x00000024   Code   RO          688    .text               mc_w.l(init.o)
    0x08002f28   0x08002f28   0x0000000e   Code   RO          692    i.__scatterload_copy  mc_w.l(handlers.o)
    0x08002f36   0x08002f36   0x00000002   Code   RO          693    i.__scatterload_null  mc_w.l(handlers.o)
    0x08002f38   0x08002f38   0x0000000e   Code   RO          694    i.__scatterload_zeroinit  mc_w.l(handlers.o)
    0x08002f46   0x08002f46   0x00000200   Data   RO          573    .constdata          mbcrc.o
    0x08003146   0x08003146   0x00000002   PAD
    0x08003148   0x08003148   0x00000020   Data   RO          690    Region$$Table       anon$$obj.o


    Execution Region RW_IRAM1 (Exec base: 0x20000000, Load base: 0x08003168, Size: 0x00000628, Max: 0x00005000, ABSOLUTE)

    Exec Addr    Load Addr    Size         Type   Attr      Idx    E Section Name        Object

    0x20000000   0x08003168   0x00000018   Data   RW          103    .data               modbuscb.o
    0x20000018   0x08003180   0x00000014   Data   RW          342    .data               stm32f10x_rcc.o
    0x2000002c   0x08003194   0x00000014   Data   RW          447    .data               system_stm32f10x.o
    0x20000040   0x080031a8   0x00000002   Data   RW          547    .data               mbfuncother.o
    0x20000042   0x080031aa   0x00000002   PAD
    0x20000044   0x080031ac   0x0000000c   Data   RW          588    .data               mbrtu.o
    0x20000050   0x080031b8   0x000000b5   Data   RW          609    .data               mb.o
    0x20000105   0x0800326d   0x00000002   Data   RW          630    .data               portevent.o
    0x20000107   0x0800326f   0x00000001   PAD
    0x20000108        -       0x00000020   Zero   RW          546    .bss                mbfuncother.o
    0x20000128        -       0x00000100   Zero   RW          587    .bss                mbrtu.o
    0x20000228        -       0x00000400   Zero   RW            1    STACK               startup_stm32f10x_md.o


==============================================================================

Image component sizes


      Code (inc. data)   RO Data    RW Data    ZI Data      Debug   Object Name

       140          6          0          0          0     255304   main.o
       760         98          0        181          0       4138   mb.o
        56          8        512          0          0       1180   mbcrc.o
       430          0          0          0          0       3002   mbfunccoils.o
       172          0          0          0          0       1564   mbfuncdisc.o
       528          0          0          0          0       3869   mbfuncholding.o
       140          0          0          0          0       1515   mbfuncinput.o
       148          8          0          2         32       1773   mbfuncother.o
       676         30          0         12        256       3729   mbrtu.o
         0          0          0          0          0        568   mbtcp.o
       172          0          0          0          0       1906   mbutils.o
       220         22          0          0          0       1749   misc.o
       452         26          0         24          0       2979   modbuscb.o
        60          8          0          2          0       1500   portevent.o
       536         22          0          0          0       2578   portserial.o
       260          8          0          0          0       1237   porttimer.o
        36          8        236          0       1024        844   startup_stm32f10x_md.o
       860         38          0          0          0       5685   stm32f10x_gpio.o
        40          0          0          0          0       1687   stm32f10x_it.o
       932         36          0         20          0       8856   stm32f10x_rcc.o
      3610         88          0          0          0      22796   stm32f10x_tim.o
      1032         22          0          0          0       8408   stm32f10x_usart.o
       480         38          0         20          0       1791   system_stm32f10x.o

    ----------------------------------------------------------------------
     11744        466        782        264       1312     338658   Object Totals
         0          0         32          0          0          0   (incl. Generated)
         4          0          2          3          0          0   (incl. Padding)

    ----------------------------------------------------------------------

      Code (inc. data)   RO Data    RW Data    ZI Data      Debug   Library Member Name

         0          0          0          0          0          0   entry.o
         0          0          0          0          0          0   entry10a.o
         0          0          0          0          0          0   entry11a.o
         8          4          0          0          0          0   entry2.o
         4          0          0          0          0          0   entry5.o
         0          0          0          0          0          0   entry7b.o
         0          0          0          0          0          0   entry8b.o
         8          4          0          0          0          0   entry9a.o
        30          0          0          0          0          0   handlers.o
        36          8          0          0          0         68   init.o
        36          0          0          0          0         68   memcpya.o

    ----------------------------------------------------------------------
       122         16          0          0          0        136   Library Totals
         0          0          0          0          0          0   (incl. Padding)

    ----------------------------------------------------------------------

      Code (inc. data)   RO Data    RW Data    ZI Data      Debug   Library Name

       122         16          0          0          0        136   mc_w.l

    ----------------------------------------------------------------------
       122         16          0          0          0        136   Library Totals

    ----------------------------------------------------------------------

==============================================================================


      Code (inc. data)   RO Data    RW Data    ZI Data      Debug   

     11866        482        782        264       1312     337334   Grand Totals
     11866        482        782        264       1312     337334   ELF Image Totals
     11866        482        782        264          0          0   ROM Totals

==============================================================================

    Total RO  Size (Code + RO Data)                12648 (  12.35kB)
    Total RW  Size (RW Data + ZI Data)              1576 (   1.54kB)
    Total ROM Size (Code + RO Data + RW Data)      12912 (  12.61kB)

==============================================================================

